{
  "_format": "hh-sol-artifact-1",
  "contractName": "BitcinoBetEscrow",
  "sourceName": "contracts/BitcinoBetEscrow.sol",
  "abi": [
    {
      "inputs": [
        {
          "internalType": "address",
          "name": "_feeReceiver",
          "type": "address"
        },
        {
          "internalType": "address",
          "name": "_serverWallet",
          "type": "address"
        }
      ],
      "stateMutability": "nonpayable",
      "type": "constructor"
    },
    {
      "inputs": [],
      "name": "ReentrancyGuardReentrantCall",
      "type": "error"
    },
    {
      "anonymous": false,
      "inputs": [
        {
          "indexed": true,
          "internalType": "address",
          "name": "player",
          "type": "address"
        },
        {
          "indexed": false,
          "internalType": "uint256",
          "name": "amount",
          "type": "uint256"
        }
      ],
      "name": "BalanceWithdrawn",
      "type": "event"
    },
    {
      "anonymous": false,
      "inputs": [
        {
          "indexed": true,
          "internalType": "uint256",
          "name": "betId",
          "type": "uint256"
        },
        {
          "indexed": true,
          "internalType": "address",
          "name": "player1",
          "type": "address"
        },
        {
          "indexed": false,
          "internalType": "uint256",
          "name": "amount",
          "type": "uint256"
        }
      ],
      "name": "BetCanceled",
      "type": "event"
    },
    {
      "anonymous": false,
      "inputs": [
        {
          "indexed": true,
          "internalType": "uint256",
          "name": "betId",
          "type": "uint256"
        },
        {
          "indexed": true,
          "internalType": "address",
          "name": "player2",
          "type": "address"
        },
        {
          "indexed": false,
          "internalType": "uint256",
          "name": "amount",
          "type": "uint256"
        }
      ],
      "name": "BetJoined",
      "type": "event"
    },
    {
      "anonymous": false,
      "inputs": [
        {
          "indexed": true,
          "internalType": "uint256",
          "name": "betId",
          "type": "uint256"
        },
        {
          "indexed": true,
          "internalType": "address",
          "name": "player1",
          "type": "address"
        },
        {
          "indexed": false,
          "internalType": "uint256",
          "name": "amount",
          "type": "uint256"
        },
        {
          "indexed": false,
          "internalType": "string",
          "name": "gameType",
          "type": "string"
        }
      ],
      "name": "BetPlaced",
      "type": "event"
    },
    {
      "anonymous": false,
      "inputs": [
        {
          "indexed": true,
          "internalType": "uint256",
          "name": "betId",
          "type": "uint256"
        },
        {
          "indexed": true,
          "internalType": "address",
          "name": "winner",
          "type": "address"
        },
        {
          "indexed": false,
          "internalType": "uint256",
          "name": "winnerPayout",
          "type": "uint256"
        },
        {
          "indexed": false,
          "internalType": "uint256",
          "name": "feeAmount",
          "type": "uint256"
        }
      ],
      "name": "BetSettled",
      "type": "event"
    },
    {
      "anonymous": false,
      "inputs": [
        {
          "indexed": true,
          "internalType": "uint256",
          "name": "betId",
          "type": "uint256"
        },
        {
          "indexed": true,
          "internalType": "address",
          "name": "winner",
          "type": "address"
        },
        {
          "indexed": false,
          "internalType": "uint256",
          "name": "winnerPayout",
          "type": "uint256"
        },
        {
          "indexed": false,
          "internalType": "uint256",
          "name": "feeAmount",
          "type": "uint256"
        },
        {
          "indexed": false,
          "internalType": "uint256",
          "name": "drandRound",
          "type": "uint256"
        },
        {
          "indexed": false,
          "internalType": "uint256",
          "name": "drandValue",
          "type": "uint256"
        },
        {
          "indexed": false,
          "internalType": "uint8",
          "name": "player1Roll",
          "type": "uint8"
        },
        {
          "indexed": false,
          "internalType": "uint8",
          "name": "player2Roll",
          "type": "uint8"
        }
      ],
      "name": "BetSettledWithDrand",
      "type": "event"
    },
    {
      "inputs": [],
      "name": "FEE_PERCENT",
      "outputs": [
        {
          "internalType": "uint256",
          "name": "",
          "type": "uint256"
        }
      ],
      "stateMutability": "view",
      "type": "function"
    },
    {
      "inputs": [],
      "name": "betCounter",
      "outputs": [
        {
          "internalType": "uint256",
          "name": "",
          "type": "uint256"
        }
      ],
      "stateMutability": "view",
      "type": "function"
    },
    {
      "inputs": [
        {
          "internalType": "uint256",
          "name": "",
          "type": "uint256"
        }
      ],
      "name": "bets",
      "outputs": [
        {
          "internalType": "uint256",
          "name": "betId",
          "type": "uint256"
        },
        {
          "internalType": "address",
          "name": "player1",
          "type": "address"
        },
        {
          "internalType": "address",
          "name": "player2",
          "type": "address"
        },
        {
          "internalType": "uint256",
          "name": "amount",
          "type": "uint256"
        },
        {
          "internalType": "enum BitcinoBetEscrow.BetStatus",
          "name": "status",
          "type": "uint8"
        },
        {
          "internalType": "address",
          "name": "winner",
          "type": "address"
        },
        {
          "internalType": "uint256",
          "name": "settledAt",
          "type": "uint256"
        },
        {
          "internalType": "string",
          "name": "gameType",
          "type": "string"
        }
      ],
      "stateMutability": "view",
      "type": "function"
    },
    {
      "inputs": [
        {
          "internalType": "uint256",
          "name": "_betId",
          "type": "uint256"
        }
      ],
      "name": "cancelBet",
      "outputs": [],
      "stateMutability": "nonpayable",
      "type": "function"
    },
    {
      "inputs": [
        {
          "internalType": "address",
          "name": "",
          "type": "address"
        }
      ],
      "name": "claimableBalance",
      "outputs": [
        {
          "internalType": "uint256",
          "name": "",
          "type": "uint256"
        }
      ],
      "stateMutability": "view",
      "type": "function"
    },
    {
      "inputs": [],
      "name": "feeReceiver",
      "outputs": [
        {
          "internalType": "address",
          "name": "",
          "type": "address"
        }
      ],
      "stateMutability": "view",
      "type": "function"
    },
    {
      "inputs": [
        {
          "internalType": "address",
          "name": "_player",
          "type": "address"
        }
      ],
      "name": "getBalance",
      "outputs": [
        {
          "internalType": "uint256",
          "name": "",
          "type": "uint256"
        }
      ],
      "stateMutability": "view",
      "type": "function"
    },
    {
      "inputs": [
        {
          "internalType": "uint256",
          "name": "_betId",
          "type": "uint256"
        }
      ],
      "name": "getBet",
      "outputs": [
        {
          "components": [
            {
              "internalType": "uint256",
              "name": "betId",
              "type": "uint256"
            },
            {
              "internalType": "address",
              "name": "player1",
              "type": "address"
            },
            {
              "internalType": "address",
              "name": "player2",
              "type": "address"
            },
            {
              "internalType": "uint256",
              "name": "amount",
              "type": "uint256"
            },
            {
              "internalType": "enum BitcinoBetEscrow.BetStatus",
              "name": "status",
              "type": "uint8"
            },
            {
              "internalType": "address",
              "name": "winner",
              "type": "address"
            },
            {
              "internalType": "uint256",
              "name": "settledAt",
              "type": "uint256"
            },
            {
              "internalType": "string",
              "name": "gameType",
              "type": "string"
            }
          ],
          "internalType": "struct BitcinoBetEscrow.Bet",
          "name": "",
          "type": "tuple"
        }
      ],
      "stateMutability": "view",
      "type": "function"
    },
    {
      "inputs": [],
      "name": "getEscrowTotal",
      "outputs": [
        {
          "internalType": "uint256",
          "name": "",
          "type": "uint256"
        }
      ],
      "stateMutability": "view",
      "type": "function"
    },
    {
      "inputs": [
        {
          "internalType": "uint256",
          "name": "_betId",
          "type": "uint256"
        }
      ],
      "name": "joinBet",
      "outputs": [],
      "stateMutability": "payable",
      "type": "function"
    },
    {
      "inputs": [
        {
          "internalType": "string",
          "name": "_gameType",
          "type": "string"
        }
      ],
      "name": "placeBet",
      "outputs": [],
      "stateMutability": "payable",
      "type": "function"
    },
    {
      "inputs": [],
      "name": "serverWallet",
      "outputs": [
        {
          "internalType": "address",
          "name": "",
          "type": "address"
        }
      ],
      "stateMutability": "view",
      "type": "function"
    },
    {
      "inputs": [
        {
          "internalType": "uint256",
          "name": "_betId",
          "type": "uint256"
        },
        {
          "internalType": "address",
          "name": "_winner",
          "type": "address"
        }
      ],
      "name": "settleWager",
      "outputs": [],
      "stateMutability": "nonpayable",
      "type": "function"
    },
    {
      "inputs": [
        {
          "internalType": "uint256",
          "name": "_betId",
          "type": "uint256"
        },
        {
          "internalType": "uint256",
          "name": "_drandRound",
          "type": "uint256"
        },
        {
          "internalType": "uint256",
          "name": "_drandValue",
          "type": "uint256"
        }
      ],
      "name": "settleWagerWithDrand",
      "outputs": [],
      "stateMutability": "nonpayable",
      "type": "function"
    },
    {
      "inputs": [],
      "name": "totalEscrow",
      "outputs": [
        {
          "internalType": "uint256",
          "name": "",
          "type": "uint256"
        }
      ],
      "stateMutability": "view",
      "type": "function"
    },
    {
      "inputs": [],
      "name": "withdraw",
      "outputs": [],
      "stateMutability": "nonpayable",
      "type": "function"
    },
    {
      "stateMutability": "payable",
      "type": "receive"
    }
  ],
  "bytecode": "0x60c06040523480156200001157600080fd5b506040516200192338038062001923833981016040819052620000349162000127565b60016000556001600160a01b038216620000955760405162461bcd60e51b815260206004820152601460248201527f496e76616c69642066656520726563656976657200000000000000000000000060448201526064015b60405180910390fd5b6001600160a01b038116620000ed5760405162461bcd60e51b815260206004820152601560248201527f496e76616c6964207365727665722077616c6c6574000000000000000000000060448201526064016200008c565b6001600160a01b039182166080521660a05260006003556200015f565b80516001600160a01b03811681146200012257600080fd5b919050565b600080604083850312156200013b57600080fd5b62000146836200010a565b915062000156602084016200010a565b90509250929050565b60805160a051611782620001a1600039600081816101b501528181610a700152610d3201526000818161032b01528181610c6b0152610f3801526117826000f3fe6080604052600436106100f75760003560e01c806351192e3f1161008a578063a416f5ab11610059578063a416f5ab14610303578063b3f0067414610319578063eaf98d231461034d578063f8b2cb4f1461036257600080fd5b806351192e3f1461028d57806360f3309b146102ad57806397bfeb88146102da578063a3d89844146102ed57600080fd5b8063357401f5116100c6578063357401f51461022357806339fb3f45146102455780633ccfd60b146102585780634e0f0e8d1461026d57600080fd5b8063061e494f1461014e5780631011c383146101845780631a59f0f0146101a357806322af00fa146101ef57600080fd5b366101495760405162461bcd60e51b815260206004820181905260248201527f55736520706c616365426574282920746f20696e69746961746520612062657460448201526064015b60405180910390fd5b600080fd5b34801561015a57600080fd5b5061016e610169366004611250565b610398565b60405161017b91906112e7565b60405180910390f35b34801561019057600080fd5b506004545b60405190815260200161017b565b3480156101af57600080fd5b506101d77f000000000000000000000000000000000000000000000000000000000000000081565b6040516001600160a01b03909116815260200161017b565b3480156101fb57600080fd5b5061020f61020a366004611250565b610522565b60405161017b989796959493929190611376565b34801561022f57600080fd5b5061024361023e366004611250565b610602565b005b610243610253366004611250565b610781565b34801561026457600080fd5b50610243610921565b34801561027957600080fd5b506102436102883660046113f8565b610a5d565b34801561029957600080fd5b506102436102a8366004611424565b610d1f565b3480156102b957600080fd5b506101956102c8366004611450565b60026020526000908152604090205481565b6102436102e8366004611488565b611010565b3480156102f957600080fd5b5061019560045481565b34801561030f57600080fd5b5061019560035481565b34801561032557600080fd5b506101d77f000000000000000000000000000000000000000000000000000000000000000081565b34801561035957600080fd5b50610195600281565b34801561036e57600080fd5b5061019561037d366004611450565b6001600160a01b031660009081526002602052604090205490565b6103de6040805161010081018252600080825260208201819052918101829052606081018290529060808201908152600060208201819052604082015260609081015290565b60008281526001602081815260409283902083516101008101855281548152928101546001600160a01b039081169284019290925260028101549091169282019290925260038083015460608301526004830154919291608084019160ff9091169081111561044f5761044f611269565b600381111561046057610460611269565b8152600482015461010090046001600160a01b031660208201526005820154604082015260068201805460609092019161049990611539565b80601f01602080910402602001604051908101604052809291908181526020018280546104c590611539565b80156105125780601f106104e757610100808354040283529160200191610512565b820191906000526020600020905b8154815290600101906020018083116104f557829003601f168201915b5050505050815250509050919050565b600160208190526000918252604090912080549181015460028201546003830154600484015460058501546006860180546001600160a01b039687169795871696949560ff85169561010090950490941693919061057f90611539565b80601f01602080910402602001604051908101604052809291908181526020018280546105ab90611539565b80156105f85780601f106105cd576101008083540402835291602001916105f8565b820191906000526020600020905b8154815290600101906020018083116105db57829003601f168201915b5050505050905088565b61060a611226565b600081815260016020526040812090600482015460ff16600381111561063257610632611269565b146106895760405162461bcd60e51b815260206004820152602160248201527f4f6e6c792070656e64696e6720626574732063616e2062652063616e63656c656044820152601960fa1b6064820152608401610140565b60018101546001600160a01b031633146106e55760405162461bcd60e51b815260206004820152601760248201527f4f6e6c7920706c61796572312063616e2063616e63656c0000000000000000006044820152606401610140565b60038082015460048301805491929160ff1916600183021790555080600460008282546107129190611589565b909155505033600090815260026020526040812080548392906107369084906115a2565b9091555050604051818152339084907ff17ce20c49b8c306870d5fe42f4badc29fd4c720a2c6a41dd2942f0cd8e77c359060200160405180910390a3505061077e6001600055565b50565b610789611226565b600081815260016020526040812090600482015460ff1660038111156107b1576107b1611269565b146107f35760405162461bcd60e51b8152602060048201526012602482015271426574206973206e6f742070656e64696e6760701b6044820152606401610140565b806003015434146108465760405162461bcd60e51b815260206004820152601d60248201527f4d757374206d617463682062657420616d6f756e742065786163746c790000006044820152606401610140565b60018101546001600160a01b031633036108a25760405162461bcd60e51b815260206004820152601c60248201527f43616e6e6f7420706c617920616761696e737420796f757273656c66000000006044820152606401610140565b6002810180546001600160a01b031916331790556004808201805460ff1916600117905580543491906000906108d99084906115a2565b9091555050604051348152339083907f178c34f2ab8b20fd561010b42eb45708692aa14a05fdf45525fd2f0968277c5e906020015b60405180910390a35061077e6001600055565b610929611226565b336000908152600260205260409020548061097f5760405162461bcd60e51b81526020600482015260166024820152754e6f2062616c616e636520746f20776974686472617760501b6044820152606401610140565b336000818152600260205260408082208290555190919083908381818185875af1925050503d80600081146109d0576040519150601f19603f3d011682016040523d82523d6000602084013e6109d5565b606091505b5050905080610a1a5760405162461bcd60e51b815260206004820152601160248201527015da5d1a191c985dd85b0819985a5b1959607a1b6044820152606401610140565b60405182815233907fddc398b321237a8d40ac914388309c2f52a08c134e4dc4ce61e32f57cb7d80f19060200160405180910390a25050610a5b6001600055565b565b610a65611226565b336001600160a01b037f00000000000000000000000000000000000000000000000000000000000000001614610add5760405162461bcd60e51b815260206004820152601d60248201527f4f6e6c79207365727665722063616e20736574746c65207761676572730000006044820152606401610140565b600082815260016020819052604090912090600482015460ff166003811115610b0857610b08611269565b14610b495760405162461bcd60e51b8152602060048201526011602482015270426574206973206e6f742061637469766560781b6044820152606401610140565b60018101546001600160a01b0383811691161480610b76575060028101546001600160a01b038381169116145b610bcc5760405162461bcd60e51b815260206004820152602160248201527f57696e6e6572206d757374206265206f6e65206f662074686520706c617965726044820152607360f81b6064820152608401610140565b600081600301546002610bdf91906115b5565b905060006064610bf06002846115b5565b610bfa91906115e2565b90506000610c088284611589565b60048501805460026001600160a81b03199091166101006001600160a01b038a1690810291909117821790925542600588015560009182526020526040812080549293508392909190610c5c9084906115a2565b90915550506001600160a01b037f00000000000000000000000000000000000000000000000000000000000000001660009081526002602052604081208054849290610ca99084906115a2565b925050819055508260046000828254610cc29190611589565b909155505060408051828152602081018490526001600160a01b0387169188917f11a22d497c329e14d872e0a7dac587549da712f0e005562916d7acc434cc8a32910160405180910390a350505050610d1b6001600055565b5050565b610d27611226565b336001600160a01b037f00000000000000000000000000000000000000000000000000000000000000001614610d9f5760405162461bcd60e51b815260206004820152601d60248201527f4f6e6c79207365727665722063616e20736574746c65207761676572730000006044820152606401610140565b600083815260016020819052604090912090600482015460ff166003811115610dca57610dca611269565b14610e0b5760405162461bcd60e51b8152602060048201526011602482015270426574206973206e6f742061637469766560781b6044820152606401610140565b6000610e186006846115f6565b610e239060016115a2565b90506000610e366006600886901c6115f6565b610e419060016115a2565b905060008160ff168360ff161115610e67575060018301546001600160a01b0316610e99565b8260ff168260ff161115610e89575060028301546001600160a01b0316610e99565b5060018301546001600160a01b03165b600084600301546002610eac91906115b5565b905060006064610ebd6002846115b5565b610ec791906115e2565b90506000610ed58284611589565b60048801805460026001600160a81b03199091166101006001600160a01b0389169081029190911782179092554260058b015560009182526020526040812080549293508392909190610f299084906115a2565b90915550506001600160a01b037f00000000000000000000000000000000000000000000000000000000000000001660009081526002602052604081208054849290610f769084906115a2565b925050819055508260046000828254610f8f9190611589565b909155505060408051828152602081018490529081018a90526060810189905260ff8088166080830152861660a08201526001600160a01b038516908b907fba42bb0760ff543d01f4b0a3101fb6e78245fa035d92fc65a72aceeae33e66969060c00160405180910390a35050505050505061100b6001600055565b505050565b611018611226565b600034116110725760405162461bcd60e51b815260206004820152602160248201527f42657420616d6f756e74206d7573742062652067726561746572207468616e206044820152600360fc1b6064820152608401610140565b60008151116110b85760405162461bcd60e51b815260206004820152601260248201527111d85b59481d1e5c19481c995c5d5a5c995960721b6044820152606401610140565b600380549060006110c88361160a565b9091555050600380546040805161010081018252828152336020808301918252600083850181815234606086019081526080860183815260a0870184905260c0870184905260e087018b90528884526001948590529690922085518155935184840180546001600160a01b03199081166001600160a01b039384161790915591516002860180549093169116179055518287015592516004820180549596939592949193909260ff19169190849081111561118557611185611269565b021790555060a08201516004820180546001600160a01b0390921661010002610100600160a81b031990921691909117905560c0820151600582015560e082015160068201906111d59082611673565b5090505034600460008282546111eb91906115a2565b9091555050604051339082907f3a5b25f48e15ab3e4d810304ed7368c35de823921fa3fd504ba8ab2841bf1ad79061090e9034908790611733565b60026000540361124957604051633ee5aeb560e01b815260040160405180910390fd5b6002600055565b60006020828403121561126257600080fd5b5035919050565b634e487b7160e01b600052602160045260246000fd5b6004811061129d57634e487b7160e01b600052602160045260246000fd5b9052565b6000815180845260005b818110156112c7576020818501810151868301820152016112ab565b506000602082860101526020601f19601f83011685010191505092915050565b60208152815160208201526000602083015160018060a01b038082166040850152806040860151166060850152505060608301516080830152608083015161133260a084018261127f565b5060a08301516001600160a01b03811660c08401525060c083015160e083015260e083015161010080818501525061136e6101208401826112a1565b949350505050565b8881526001600160a01b038881166020830152878116604083015260608201879052600090610100906113ac608085018961127f565b80871660a0850152508460c08401528060e08401526113cd818401856112a1565b9b9a5050505050505050505050565b80356001600160a01b03811681146113f357600080fd5b919050565b6000806040838503121561140b57600080fd5b8235915061141b602084016113dc565b90509250929050565b60008060006060848603121561143957600080fd5b505081359360208301359350604090920135919050565b60006020828403121561146257600080fd5b61146b826113dc565b9392505050565b634e487b7160e01b600052604160045260246000fd5b60006020828403121561149a57600080fd5b813567ffffffffffffffff808211156114b257600080fd5b818401915084601f8301126114c657600080fd5b8135818111156114d8576114d8611472565b604051601f8201601f19908116603f0116810190838211818310171561150057611500611472565b8160405282815287602084870101111561151957600080fd5b826020860160208301376000928101602001929092525095945050505050565b600181811c9082168061154d57607f821691505b60208210810361156d57634e487b7160e01b600052602260045260246000fd5b50919050565b634e487b7160e01b600052601160045260246000fd5b8181038181111561159c5761159c611573565b92915050565b8082018082111561159c5761159c611573565b808202811582820484141761159c5761159c611573565b634e487b7160e01b600052601260045260246000fd5b6000826115f1576115f16115cc565b500490565b600082611605576116056115cc565b500690565b60006001820161161c5761161c611573565b5060010190565b601f82111561100b576000816000526020600020601f850160051c8101602086101561164c5750805b601f850160051c820191505b8181101561166b57828155600101611658565b505050505050565b815167ffffffffffffffff81111561168d5761168d611472565b6116a18161169b8454611539565b84611623565b602080601f8311600181146116d657600084156116be5750858301515b600019600386901b1c1916600185901b17855561166b565b600085815260208120601f198616915b82811015611705578886015182559484019460019091019084016116e6565b50858210156117235787850151600019600388901b60f8161c191681555b5050505050600190811b01905550565b82815260406020820152600061136e60408301846112a156fea2646970667358221220e8ef6dc082dbbf7fcdf29c634454237c748b8e9537d687cafe25ea7706a1efaa64736f6c63430008180033",
  "linkReferences": {},
  "deployedLinkReferences": {}
}